{
  "contractName": "DutchAuction",
  "abi": [
    {
      "inputs": [
        {
          "internalType": "uint256",
          "name": "_startingPrice",
          "type": "uint256"
        },
        {
          "internalType": "uint256",
          "name": "_discountRate",
          "type": "uint256"
        },
        {
          "internalType": "address",
          "name": "_nft",
          "type": "address"
        },
        {
          "internalType": "uint256",
          "name": "_nftId",
          "type": "uint256"
        }
      ],
      "stateMutability": "nonpayable",
      "type": "constructor"
    },
    {
      "inputs": [],
      "name": "discountRate",
      "outputs": [
        {
          "internalType": "uint256",
          "name": "",
          "type": "uint256"
        }
      ],
      "stateMutability": "view",
      "type": "function"
    },
    {
      "inputs": [],
      "name": "expiresAt",
      "outputs": [
        {
          "internalType": "uint256",
          "name": "",
          "type": "uint256"
        }
      ],
      "stateMutability": "view",
      "type": "function"
    },
    {
      "inputs": [],
      "name": "nft",
      "outputs": [
        {
          "internalType": "contract IERC721",
          "name": "",
          "type": "address"
        }
      ],
      "stateMutability": "view",
      "type": "function"
    },
    {
      "inputs": [],
      "name": "nftId",
      "outputs": [
        {
          "internalType": "uint256",
          "name": "",
          "type": "uint256"
        }
      ],
      "stateMutability": "view",
      "type": "function"
    },
    {
      "inputs": [],
      "name": "seller",
      "outputs": [
        {
          "internalType": "address payable",
          "name": "",
          "type": "address"
        }
      ],
      "stateMutability": "view",
      "type": "function"
    },
    {
      "inputs": [],
      "name": "startAt",
      "outputs": [
        {
          "internalType": "uint256",
          "name": "",
          "type": "uint256"
        }
      ],
      "stateMutability": "view",
      "type": "function"
    },
    {
      "inputs": [],
      "name": "startingPrice",
      "outputs": [
        {
          "internalType": "uint256",
          "name": "",
          "type": "uint256"
        }
      ],
      "stateMutability": "view",
      "type": "function"
    },
    {
      "inputs": [],
      "name": "getPrice",
      "outputs": [
        {
          "internalType": "uint256",
          "name": "",
          "type": "uint256"
        }
      ],
      "stateMutability": "view",
      "type": "function"
    },
    {
      "inputs": [],
      "name": "buy",
      "outputs": [],
      "stateMutability": "payable",
      "type": "function"
    }
  ],
  "bytecode": "0x6101606040523480156200001257600080fd5b5060405162000d4b38038062000d4b8339818101604052810190620000389190620001e0565b3373ffffffffffffffffffffffffffffffffffffffff1660c08173ffffffffffffffffffffffffffffffffffffffff16815250508360e0818152505042610100818152505062093a80426200008e919062000281565b610120818152505082610140818152505062093a8083620000b09190620002de565b841015620000f5576040517f08c379a0000000000000000000000000000000000000000000000000000000008152600401620000ec90620003a0565b60405180910390fd5b8173ffffffffffffffffffffffffffffffffffffffff1660808173ffffffffffffffffffffffffffffffffffffffff16815250508060a0818152505050505050620003c2565b600080fd5b6000819050919050565b620001558162000140565b81146200016157600080fd5b50565b60008151905062000175816200014a565b92915050565b600073ffffffffffffffffffffffffffffffffffffffff82169050919050565b6000620001a8826200017b565b9050919050565b620001ba816200019b565b8114620001c657600080fd5b50565b600081519050620001da81620001af565b92915050565b60008060008060808587031215620001fd57620001fc6200013b565b5b60006200020d8782880162000164565b9450506020620002208782880162000164565b93505060406200023387828801620001c9565b9250506060620002468782880162000164565b91505092959194509250565b7f4e487b7100000000000000000000000000000000000000000000000000000000600052601160045260246000fd5b60006200028e8262000140565b91506200029b8362000140565b9250827fffffffffffffffffffffffffffffffffffffffffffffffffffffffffffffffff03821115620002d357620002d262000252565b5b828201905092915050565b6000620002eb8262000140565b9150620002f88362000140565b9250817fffffffffffffffffffffffffffffffffffffffffffffffffffffffffffffffff048311821515161562000334576200033362000252565b5b828202905092915050565b600082825260208201905092915050565b7f7374617274696e67207072696365203c206d696e000000000000000000000000600082015250565b6000620003886014836200033f565b9150620003958262000350565b602082019050919050565b60006020820190508181036000830152620003bb8162000379565b9050919050565b60805160a05160c05160e0516101005161012051610140516108f6620004556000396000818161028f015261057501526000818161023701526102ef01526000818161025e015261052d0152600081816102bd01526105510152600081816101ef015281816103dc01526104d00152600081816103fe015261050901526000818161021301526103a001526108f66000f3fe6080604052600436106100865760003560e01c8063a6f2ae3a11610059578063a6f2ae3a14610137578063c6bc518214610141578063c74465651461016c578063d6fbf20214610197578063e6c0e6d5146101c257610086565b806308551a531461008b57806347ccca02146100b65780638622a689146100e157806398d5fdca1461010c575b600080fd5b34801561009757600080fd5b506100a06101ed565b6040516100ad91906105d8565b60405180910390f35b3480156100c257600080fd5b506100cb610211565b6040516100d89190610652565b60405180910390f35b3480156100ed57600080fd5b506100f6610235565b6040516101039190610686565b60405180910390f35b34801561011857600080fd5b50610121610259565b60405161012e9190610686565b60405180910390f35b61013f6102ed565b005b34801561014d57600080fd5b50610156610507565b6040516101639190610686565b60405180910390f35b34801561017857600080fd5b5061018161052b565b60405161018e9190610686565b60405180910390f35b3480156101a357600080fd5b506101ac61054f565b6040516101b99190610686565b60405180910390f35b3480156101ce57600080fd5b506101d7610573565b6040516101e49190610686565b60405180910390f35b7f000000000000000000000000000000000000000000000000000000000000000081565b7f000000000000000000000000000000000000000000000000000000000000000081565b7f000000000000000000000000000000000000000000000000000000000000000081565b6000807f00000000000000000000000000000000000000000000000000000000000000004261028891906106d0565b90506000817f00000000000000000000000000000000000000000000000000000000000000006102b89190610704565b9050807f00000000000000000000000000000000000000000000000000000000000000006102e691906106d0565b9250505090565b7f0000000000000000000000000000000000000000000000000000000000000000421061034f576040517f08c379a0000000000000000000000000000000000000000000000000000000008152600401610346906107bb565b60405180910390fd5b6000610359610259565b90508034101561039e576040517f08c379a000000000000000000000000000000000000000000000000000000000815260040161039590610827565b60405180910390fd5b7f000000000000000000000000000000000000000000000000000000000000000073ffffffffffffffffffffffffffffffffffffffff166323b872dd7f0000000000000000000000000000000000000000000000000000000000000000337f00000000000000000000000000000000000000000000000000000000000000006040518463ffffffff1660e01b815260040161043b93929190610889565b600060405180830381600087803b15801561045557600080fd5b505af1158015610469573d6000803e3d6000fd5b505050506000813461047b91906106d0565b905060008111156104ce573373ffffffffffffffffffffffffffffffffffffffff166108fc829081150290604051600060405180830381858888f193505050501580156104cc573d6000803e3d6000fd5b505b7f000000000000000000000000000000000000000000000000000000000000000073ffffffffffffffffffffffffffffffffffffffff16ff5b7f000000000000000000000000000000000000000000000000000000000000000081565b7f000000000000000000000000000000000000000000000000000000000000000081565b7f000000000000000000000000000000000000000000000000000000000000000081565b7f000000000000000000000000000000000000000000000000000000000000000081565b600073ffffffffffffffffffffffffffffffffffffffff82169050919050565b60006105c282610597565b9050919050565b6105d2816105b7565b82525050565b60006020820190506105ed60008301846105c9565b92915050565b6000819050919050565b600061061861061361060e84610597565b6105f3565b610597565b9050919050565b600061062a826105fd565b9050919050565b600061063c8261061f565b9050919050565b61064c81610631565b82525050565b60006020820190506106676000830184610643565b92915050565b6000819050919050565b6106808161066d565b82525050565b600060208201905061069b6000830184610677565b92915050565b7f4e487b7100000000000000000000000000000000000000000000000000000000600052601160045260246000fd5b60006106db8261066d565b91506106e68361066d565b9250828210156106f9576106f86106a1565b5b828203905092915050565b600061070f8261066d565b915061071a8361066d565b9250817fffffffffffffffffffffffffffffffffffffffffffffffffffffffffffffffff0483118215151615610753576107526106a1565b5b828202905092915050565b600082825260208201905092915050565b7f61756374696f6e20657870697265640000000000000000000000000000000000600082015250565b60006107a5600f8361075e565b91506107b08261076f565b602082019050919050565b600060208201905081810360008301526107d481610798565b9050919050565b7f455448203c207072696365000000000000000000000000000000000000000000600082015250565b6000610811600b8361075e565b915061081c826107db565b602082019050919050565b6000602082019050818103600083015261084081610804565b9050919050565b60006108528261061f565b9050919050565b61086281610847565b82525050565b600061087382610597565b9050919050565b61088381610868565b82525050565b600060608201905061089e6000830186610859565b6108ab602083018561087a565b6108b86040830184610677565b94935050505056fea2646970667358221220b5b194967b5d4d2b17091bf598b399dc08f10e043e30f06faeaeb06cfb5e950e64736f6c634300080b0033",
  "immutableReferences": {
    "17": [
      {
        "length": 32,
        "start": 531
      },
      {
        "length": 32,
        "start": 928
      }
    ],
    "19": [
      {
        "length": 32,
        "start": 1022
      },
      {
        "length": 32,
        "start": 1289
      }
    ],
    "21": [
      {
        "length": 32,
        "start": 495
      },
      {
        "length": 32,
        "start": 988
      },
      {
        "length": 32,
        "start": 1232
      }
    ],
    "23": [
      {
        "length": 32,
        "start": 701
      },
      {
        "length": 32,
        "start": 1361
      }
    ],
    "25": [
      {
        "length": 32,
        "start": 606
      },
      {
        "length": 32,
        "start": 1325
      }
    ],
    "27": [
      {
        "length": 32,
        "start": 567
      },
      {
        "length": 32,
        "start": 751
      }
    ],
    "29": [
      {
        "length": 32,
        "start": 655
      },
      {
        "length": 32,
        "start": 1397
      }
    ]
  },
  "source": "// SPDX-License-Identifier: MIT\r\npragma solidity ^0.8.7;\r\n\r\ninterface IERC721 {\r\n  function transferFrom(\r\n    address _from,\r\n    address _to,\r\n    uint _nftId\r\n  ) external;\r\n}\r\n\r\ncontract DutchAuction {\r\n  uint private constant DURATION = 7 days;\r\n\r\n  IERC721 public immutable nft;\r\n  uint public immutable nftId;\r\n\r\n  address payable public immutable seller;\r\n  uint public immutable startingPrice;\r\n  uint public immutable startAt;\r\n  uint public immutable expiresAt;\r\n  uint public immutable discountRate;\r\n\r\n  constructor(\r\n    uint _startingPrice,\r\n    uint _discountRate,\r\n    address _nft,\r\n    uint _nftId\r\n  ) {\r\n    seller = payable(msg.sender);\r\n    startingPrice = _startingPrice;\r\n    startAt = block.timestamp;\r\n    expiresAt = block.timestamp + DURATION;\r\n    discountRate = _discountRate;\r\n\r\n    require(_startingPrice >= _discountRate * DURATION, \"starting price < min\");\r\n\r\n    nft = IERC721(_nft);\r\n    nftId = _nftId;\r\n  }\r\n\r\n  function getPrice() public view returns (uint) {\r\n    uint timeElapsed = block.timestamp - startAt;\r\n    uint discount = discountRate * timeElapsed;\r\n    return startingPrice - discount;\r\n  }\r\n\r\n  function buy() external payable {\r\n    require(block.timestamp < expiresAt, \"auction expired\");\r\n\r\n    uint price = getPrice();\r\n    require(msg.value >= price, \"ETH < price\");\r\n\r\n    nft.transferFrom(seller, msg.sender, nftId);\r\n    uint refund = msg.value - price;\r\n    if (refund > 0) {\r\n      payable(msg.sender).transfer(refund);\r\n    }\r\n    selfdestruct(seller);\r\n  }\r\n}\r\n",
  "sourcePath": "C:\\Users\\muril\\Desktop\\NFT\\contracts\\DutchAuction.sol",
  "compiler": {
    "name": "solc",
    "version": "0.8.11+commit.d7f03943.Emscripten.clang"
  },
  "schemaVersion": "3.4.4",
  "updatedAt": "2022-06-19T22:08:19.835Z",
  "devdoc": {
    "kind": "dev",
    "methods": {},
    "version": 1
  },
  "userdoc": {
    "kind": "user",
    "methods": {},
    "version": 1
  }
}